{
  "contractName": "SupplyChain",
  "abi": [
    {
      "constant": false,
      "inputs": [],
      "name": "removeRetailer",
      "outputs": [],
      "payable": false,
      "stateMutability": "nonpayable",
      "type": "function",
      "signature": "0x16479b85"
    },
    {
      "constant": true,
      "inputs": [
        {
          "name": "_account",
          "type": "address"
        }
      ],
      "name": "isManufacturer",
      "outputs": [
        {
          "name": "",
          "type": "bool"
        }
      ],
      "payable": false,
      "stateMutability": "view",
      "type": "function",
      "signature": "0x17d4a491"
    },
    {
      "constant": true,
      "inputs": [],
      "name": "distributorCount",
      "outputs": [
        {
          "name": "",
          "type": "uint256"
        }
      ],
      "payable": false,
      "stateMutability": "view",
      "type": "function",
      "signature": "0x3ac140e8"
    },
    {
      "constant": true,
      "inputs": [],
      "name": "retailerCount",
      "outputs": [
        {
          "name": "",
          "type": "uint256"
        }
      ],
      "payable": false,
      "stateMutability": "view",
      "type": "function",
      "signature": "0x47c16a7f"
    },
    {
      "constant": true,
      "inputs": [
        {
          "name": "_account",
          "type": "address"
        }
      ],
      "name": "isRetailer",
      "outputs": [
        {
          "name": "",
          "type": "bool"
        }
      ],
      "payable": false,
      "stateMutability": "view",
      "type": "function",
      "signature": "0x5da09b88"
    },
    {
      "constant": false,
      "inputs": [
        {
          "name": "_account",
          "type": "address"
        }
      ],
      "name": "addManufacturer",
      "outputs": [],
      "payable": false,
      "stateMutability": "nonpayable",
      "type": "function",
      "signature": "0x5f8a5afa"
    },
    {
      "constant": false,
      "inputs": [
        {
          "name": "_account",
          "type": "address"
        }
      ],
      "name": "addDistributor",
      "outputs": [],
      "payable": false,
      "stateMutability": "nonpayable",
      "type": "function",
      "signature": "0x7250e224"
    },
    {
      "constant": true,
      "inputs": [
        {
          "name": "",
          "type": "uint256"
        }
      ],
      "name": "products",
      "outputs": [
        {
          "name": "pc",
          "type": "uint256"
        },
        {
          "name": "sk",
          "type": "uint256"
        },
        {
          "name": "productId",
          "type": "uint256"
        },
        {
          "name": "productPrice",
          "type": "uint256"
        },
        {
          "name": "name",
          "type": "string"
        },
        {
          "name": "manufacturingDate",
          "type": "string"
        },
        {
          "name": "manufacturerName",
          "type": "string"
        },
        {
          "name": "productStage",
          "type": "uint8"
        },
        {
          "name": "manufacturerId",
          "type": "address"
        },
        {
          "name": "distributorId",
          "type": "address"
        },
        {
          "name": "retailerId",
          "type": "address"
        }
      ],
      "payable": false,
      "stateMutability": "view",
      "type": "function",
      "signature": "0x7acc0b20"
    },
    {
      "constant": false,
      "inputs": [
        {
          "name": "_account",
          "type": "address"
        }
      ],
      "name": "addRetailer",
      "outputs": [],
      "payable": false,
      "stateMutability": "nonpayable",
      "type": "function",
      "signature": "0x8ec4f505"
    },
    {
      "constant": true,
      "inputs": [
        {
          "name": "_account",
          "type": "address"
        }
      ],
      "name": "isDistributor",
      "outputs": [
        {
          "name": "",
          "type": "bool"
        }
      ],
      "payable": false,
      "stateMutability": "view",
      "type": "function",
      "signature": "0x8f0c86fa"
    },
    {
      "constant": false,
      "inputs": [],
      "name": "removeDistributor",
      "outputs": [],
      "payable": false,
      "stateMutability": "nonpayable",
      "type": "function",
      "signature": "0x9bdc0801"
    },
    {
      "constant": true,
      "inputs": [],
      "name": "manufacturerCount",
      "outputs": [
        {
          "name": "",
          "type": "uint256"
        }
      ],
      "payable": false,
      "stateMutability": "view",
      "type": "function",
      "signature": "0xbe0c6f1c"
    },
    {
      "constant": true,
      "inputs": [],
      "name": "productCount",
      "outputs": [
        {
          "name": "",
          "type": "uint256"
        }
      ],
      "payable": false,
      "stateMutability": "view",
      "type": "function",
      "signature": "0xe0f6ef87"
    },
    {
      "constant": false,
      "inputs": [],
      "name": "removeManufacturer",
      "outputs": [],
      "payable": false,
      "stateMutability": "nonpayable",
      "type": "function",
      "signature": "0xf89620e1"
    },
    {
      "inputs": [],
      "payable": false,
      "stateMutability": "nonpayable",
      "type": "constructor",
      "signature": "constructor"
    },
    {
      "anonymous": false,
      "inputs": [
        {
          "indexed": false,
          "name": "id",
          "type": "uint256"
        }
      ],
      "name": "produced",
      "type": "event",
      "signature": "0x3bad00b74ec692016f8280d4c64d5a23ba2832749ce9f6307747ef3b935ecd91"
    },
    {
      "anonymous": false,
      "inputs": [
        {
          "indexed": false,
          "name": "id",
          "type": "uint256"
        }
      ],
      "name": "packed",
      "type": "event",
      "signature": "0x977eca9ca36fa23a0b799e12df1355eb88fb1900d76f0ca60e9f3026c809b644"
    },
    {
      "anonymous": false,
      "inputs": [
        {
          "indexed": false,
          "name": "id",
          "type": "uint256"
        }
      ],
      "name": "sold",
      "type": "event",
      "signature": "0x9c03facbfbb3359f78225339a47f6cdfd0c5dd30af8ac94a64e0fd3191bc8adf"
    },
    {
      "anonymous": false,
      "inputs": [
        {
          "indexed": false,
          "name": "id",
          "type": "uint256"
        }
      ],
      "name": "shipped",
      "type": "event",
      "signature": "0xae3fc7024aaab40b80265cc32a3c8894ce4dafdf54b91a78a2aa49f8b0bc521a"
    },
    {
      "anonymous": false,
      "inputs": [
        {
          "indexed": false,
          "name": "id",
          "type": "uint256"
        }
      ],
      "name": "received",
      "type": "event",
      "signature": "0xe66f0a779f42a53dbb677b5713ab20003216db33f14e5e97ae193ea7c04432c0"
    },
    {
      "anonymous": false,
      "inputs": [
        {
          "indexed": true,
          "name": "_account",
          "type": "address"
        }
      ],
      "name": "RetailerAdded",
      "type": "event",
      "signature": "0x71ae26cad02663e3d92efd6ec56031a80d74a20c0ab4183faa8bf262261c9baa"
    },
    {
      "anonymous": false,
      "inputs": [
        {
          "indexed": true,
          "name": "_account",
          "type": "address"
        }
      ],
      "name": "RetailerRemoved",
      "type": "event",
      "signature": "0xdb7176e79cffef81cb01767dd0447a0b24bb72ca9778d4b245581086b2a7e6db"
    },
    {
      "anonymous": false,
      "inputs": [
        {
          "indexed": true,
          "name": "_account",
          "type": "address"
        }
      ],
      "name": "DistributorAdded",
      "type": "event",
      "signature": "0xddbf200aa634dc3fb81cfd68583dd1040d1c751d335e1d86b631bde3e977fea8"
    },
    {
      "anonymous": false,
      "inputs": [
        {
          "indexed": true,
          "name": "_account",
          "type": "address"
        }
      ],
      "name": "DistributorRemoved",
      "type": "event",
      "signature": "0x126174f6cf49c81cdb4a9214c6b8f037bef55b4ec31e4fc776cea2a1c8a88d59"
    },
    {
      "anonymous": false,
      "inputs": [
        {
          "indexed": true,
          "name": "_account",
          "type": "address"
        }
      ],
      "name": "ManufacturerAdded",
      "type": "event",
      "signature": "0x561138658ca49a8540dc70dcfe64c9026c1c5b9344642242dd6562970f9c1278"
    },
    {
      "anonymous": false,
      "inputs": [
        {
          "indexed": true,
          "name": "_account",
          "type": "address"
        }
      ],
      "name": "ManufacturerRemoved",
      "type": "event",
      "signature": "0x2fed5abf6a80d6dfe30b4895481b2fc5d7dce5f8f7b931832f4a2947d5040c7f"
    },
    {
      "constant": true,
      "inputs": [
        {
          "name": "_pc",
          "type": "uint256"
        }
      ],
      "name": "getStatus",
      "outputs": [
        {
          "name": "temp",
          "type": "uint8"
        }
      ],
      "payable": false,
      "stateMutability": "view",
      "type": "function",
      "signature": "0x5c622a0e"
    },
    {
      "constant": false,
      "inputs": [
        {
          "name": "_pc",
          "type": "uint256"
        },
        {
          "name": "_name",
          "type": "string"
        },
        {
          "name": "_date",
          "type": "string"
        },
        {
          "name": "_manufacturerName",
          "type": "string"
        },
        {
          "name": "_manufacturer",
          "type": "address"
        }
      ],
      "name": "addProduct",
      "outputs": [],
      "payable": false,
      "stateMutability": "nonpayable",
      "type": "function",
      "signature": "0xed917d02"
    },
    {
      "constant": false,
      "inputs": [
        {
          "name": "_pc",
          "type": "uint256"
        }
      ],
      "name": "packProduct",
      "outputs": [],
      "payable": false,
      "stateMutability": "nonpayable",
      "type": "function",
      "signature": "0xb6a87e10"
    },
    {
      "constant": false,
      "inputs": [
        {
          "name": "_pc",
          "type": "uint256"
        }
      ],
      "name": "sellProduct",
      "outputs": [],
      "payable": true,
      "stateMutability": "payable",
      "type": "function",
      "signature": "0x492deb15"
    },
    {
      "constant": false,
      "inputs": [
        {
          "name": "_pc",
          "type": "uint256"
        },
        {
          "name": "_price",
          "type": "uint256"
        }
      ],
      "name": "shipProduct",
      "outputs": [],
      "payable": false,
      "stateMutability": "nonpayable",
      "type": "function",
      "signature": "0x022ec688"
    },
    {
      "constant": false,
      "inputs": [
        {
          "name": "_pc",
          "type": "uint256"
        }
      ],
      "name": "receivedProduct",
      "outputs": [],
      "payable": true,
      "stateMutability": "payable",
      "type": "function",
      "signature": "0x103748e1"
    }
  ],
  "bytecode": "0x608060405260006004556000600555600060065560006007553480156200002557600080fd5b506200004a336000620001b26401000000000262001a9d179091906401000000009004565b3373ffffffffffffffffffffffffffffffffffffffff167f561138658ca49a8540dc70dcfe64c9026c1c5b9344642242dd6562970f9c127860405160405180910390a2620000b1336001620001b26401000000000262001a9d179091906401000000009004565b3373ffffffffffffffffffffffffffffffffffffffff167fddbf200aa634dc3fb81cfd68583dd1040d1c751d335e1d86b631bde3e977fea860405160405180910390a262000118336002620001b26401000000000262001a9d179091906401000000009004565b3373ffffffffffffffffffffffffffffffffffffffff167f71ae26cad02663e3d92efd6ec56031a80d74a20c0ab4183faa8bf262261c9baa60405160405180910390a233600360006101000a81548173ffffffffffffffffffffffffffffffffffffffff021916908373ffffffffffffffffffffffffffffffffffffffff160217905550600160088190555060016009819055506200030a565b600073ffffffffffffffffffffffffffffffffffffffff168173ffffffffffffffffffffffffffffffffffffffff1614151515620001ef57600080fd5b6200020a828262000275640100000000026401000000009004565b1515156200021757600080fd5b60018260000160008373ffffffffffffffffffffffffffffffffffffffff1673ffffffffffffffffffffffffffffffffffffffff16815260200190815260200160002060006101000a81548160ff0219169083151502179055505050565b60008073ffffffffffffffffffffffffffffffffffffffff168273ffffffffffffffffffffffffffffffffffffffff1614151515620002b357600080fd5b8260000160008373ffffffffffffffffffffffffffffffffffffffff1673ffffffffffffffffffffffffffffffffffffffff16815260200190815260200160002060009054906101000a900460ff16905092915050565b611c1e806200031a6000396000f3fe608060405260043610610112576000357c0100000000000000000000000000000000000000000000000000000000900463ffffffff168063022ec68814610117578063103748e11461015c57806316479b851461018a57806317d4a491146101a15780633ac140e81461020a57806347c16a7f14610235578063492deb15146102605780635c622a0e1461028e5780635da09b88146102eb5780635f8a5afa146103545780637250e224146103a55780637acc0b20146103f65780638ec4f5051461064c5780638f0c86fa1461069d5780639bdc080114610706578063b6a87e101461071d578063be0c6f1c14610758578063e0f6ef8714610783578063ed917d02146107ae578063f89620e1146109ce575b600080fd5b34801561012357600080fd5b5061015a6004803603604081101561013a57600080fd5b8101908080359060200190929190803590602001909291905050506109e5565b005b6101886004803603602081101561017257600080fd5b8101908080359060200190929190505050610b8f565b005b34801561019657600080fd5b5061019f610dd3565b005b3480156101ad57600080fd5b506101f0600480360360208110156101c457600080fd5b81019080803573ffffffffffffffffffffffffffffffffffffffff169060200190929190505050610e2c565b604051808215151515815260200191505060405180910390f35b34801561021657600080fd5b5061021f610e49565b6040518082815260200191505060405180910390f35b34801561024157600080fd5b5061024a610e4f565b6040518082815260200191505060405180910390f35b61028c6004803603602081101561027657600080fd5b8101908080359060200190929190505050610e55565b005b34801561029a57600080fd5b506102c7600480360360208110156102b157600080fd5b8101908080359060200190929190505050611099565b604051808260048111156102d757fe5b60ff16815260200191505060405180910390f35b3480156102f757600080fd5b5061033a6004803603602081101561030e57600080fd5b81019080803573ffffffffffffffffffffffffffffffffffffffff1690602001909291905050506110c6565b604051808215151515815260200191505060405180910390f35b34801561036057600080fd5b506103a36004803603602081101561037757600080fd5b81019080803573ffffffffffffffffffffffffffffffffffffffff1690602001909291905050506110e3565b005b3480156103b157600080fd5b506103f4600480360360208110156103c857600080fd5b81019080803573ffffffffffffffffffffffffffffffffffffffff16906020019092919050505061113d565b005b34801561040257600080fd5b5061042f6004803603602081101561041957600080fd5b81019080803590602001909291905050506111ab565b604051808c81526020018b81526020018a815260200189815260200180602001806020018060200188600481111561046357fe5b60ff1681526020018773ffffffffffffffffffffffffffffffffffffffff1673ffffffffffffffffffffffffffffffffffffffff1681526020018673ffffffffffffffffffffffffffffffffffffffff1673ffffffffffffffffffffffffffffffffffffffff1681526020018573ffffffffffffffffffffffffffffffffffffffff1673ffffffffffffffffffffffffffffffffffffffff16815260200184810384528b818151815260200191508051906020019080838360005b8381101561053957808201518184015260208101905061051e565b50505050905090810190601f1680156105665780820380516001836020036101000a031916815260200191505b5084810383528a818151815260200191508051906020019080838360005b8381101561059f578082015181840152602081019050610584565b50505050905090810190601f1680156105cc5780820380516001836020036101000a031916815260200191505b50848103825289818151815260200191508051906020019080838360005b838110156106055780820151818401526020810190506105ea565b50505050905090810190601f1680156106325780820380516001836020036101000a031916815260200191505b509e50505050505050505050505050505060405180910390f35b34801561065857600080fd5b5061069b6004803603602081101561066f57600080fd5b81019080803573ffffffffffffffffffffffffffffffffffffffff16906020019092919050505061143a565b005b3480156106a957600080fd5b506106ec600480360360208110156106c057600080fd5b81019080803573ffffffffffffffffffffffffffffffffffffffff1690602001909291905050506114a8565b604051808215151515815260200191505060405180910390f35b34801561071257600080fd5b5061071b6114c5565b005b34801561072957600080fd5b506107566004803603602081101561074057600080fd5b810190808035906020019092919050505061151e565b005b34801561076457600080fd5b5061076d611657565b6040518082815260200191505060405180910390f35b34801561078f57600080fd5b5061079861165d565b6040518082815260200191505060405180910390f35b3480156107ba57600080fd5b506109cc600480360360a08110156107d157600080fd5b8101908080359060200190929190803590602001906401000000008111156107f857600080fd5b82018360208201111561080a57600080fd5b8035906020019184600183028401116401000000008311171561082c57600080fd5b91908080601f016020809104026020016040519081016040528093929190818152602001838380828437600081840152601f19601f8201169050808301925050505050505091929192908035906020019064010000000081111561088f57600080fd5b8201836020820111156108a157600080fd5b803590602001918460018302840111640100000000831117156108c357600080fd5b91908080601f016020809104026020016040519081016040528093929190818152602001838380828437600081840152601f19601f8201169050808301925050505050505091929192908035906020019064010000000081111561092657600080fd5b82018360208201111561093857600080fd5b8035906020019184600183028401116401000000008311171561095a57600080fd5b91908080601f016020809104026020016040519081016040528093929190818152602001838380828437600081840152601f19601f820116905080830192505050505050509192919290803573ffffffffffffffffffffffffffffffffffffffff169060200190929190505050611663565b005b3480156109da57600080fd5b506109e3611901565b005b81600260048111156109f357fe5b600a600083815260200190815260200160002060070160009054906101000a900460ff166004811115610a2257fe5b141515610a97576040517f08c379a00000000000000000000000000000000000000000000000000000000081526004018080602001828103825260148152602001807f4974656d206973206e6f742079657420736f6c6400000000000000000000000081525060200191505060405180910390fd5b610aa0336114a8565b1515610aab57600080fd5b6003600a600085815260200190815260200160002060070160006101000a81548160ff02191690836004811115610ade57fe5b021790555081600a60008581526020019081526020016000206003018190555033600a600085815260200190815260200160002060080160006101000a81548173ffffffffffffffffffffffffffffffffffffffff021916908373ffffffffffffffffffffffffffffffffffffffff1602179055507fae3fc7024aaab40b80265cc32a3c8894ce4dafdf54b91a78a2aa49f8b0bc521a836040518082815260200191505060405180910390a1505050565b8060036004811115610b9d57fe5b600a600083815260200190815260200160002060070160009054906101000a900460ff166004811115610bcc57fe5b141515610c41576040517f08c379a00000000000000000000000000000000000000000000000000000000081526004018080602001828103825260178152602001807f4974656d206973206e6f7420796574207368697070656400000000000000000081525060200191505060405180910390fd5b610c4a336110c6565b1515610c5557600080fd5b600a600083815260200190815260200160002060030154803410151515610ce4576040517f08c379a000000000000000000000000000000000000000000000000000000000815260040180806020018281038252601b8152602001807f5061696420616d6f756e7420697320696e73756666696369656e74000000000081525060200191505060405180910390fd5b8233600a600086815260200190815260200160002060090160006101000a81548173ffffffffffffffffffffffffffffffffffffffff021916908373ffffffffffffffffffffffffffffffffffffffff1602179055506004600a600086815260200190815260200160002060070160006101000a81548160ff02191690836004811115610d6d57fe5b02179055507fe66f0a779f42a53dbb677b5713ab20003216db33f14e5e97ae193ea7c04432c0846040518082815260200191505060405180910390a16000600a600083815260200190815260200160002060030154905060008134039050505050505050565b610de733600261195a90919063ffffffff16565b3373ffffffffffffffffffffffffffffffffffffffff167fdb7176e79cffef81cb01767dd0447a0b24bb72ca9778d4b245581086b2a7e6db60405160405180910390a2565b6000610e42826000611a0990919063ffffffff16565b9050919050565b60065481565b60075481565b8060016004811115610e6357fe5b600a600083815260200190815260200160002060070160009054906101000a900460ff166004811115610e9257fe5b141515610f07576040517f08c379a00000000000000000000000000000000000000000000000000000000081526004018080602001828103825260168152602001807f4974656d206973206e6f7420796574207061636b65640000000000000000000081525060200191505060405180910390fd5b610f10336114a8565b1515610f1b57600080fd5b600a600083815260200190815260200160002060030154803410151515610faa576040517f08c379a000000000000000000000000000000000000000000000000000000000815260040180806020018281038252601b8152602001807f5061696420616d6f756e7420697320696e73756666696369656e74000000000081525060200191505060405180910390fd5b8233600a600086815260200190815260200160002060080160006101000a81548173ffffffffffffffffffffffffffffffffffffffff021916908373ffffffffffffffffffffffffffffffffffffffff1602179055506002600a600086815260200190815260200160002060070160006101000a81548160ff0219169083600481111561103357fe5b02179055507f9c03facbfbb3359f78225339a47f6cdfd0c5dd30af8ac94a64e0fd3191bc8adf846040518082815260200191505060405180910390a16000600a600083815260200190815260200160002060030154905060008134039050505050505050565b6000600a600083815260200190815260200160002060070160009054906101000a900460ff169050919050565b60006110dc826002611a0990919063ffffffff16565b9050919050565b6110f7816000611a9d90919063ffffffff16565b8073ffffffffffffffffffffffffffffffffffffffff167f561138658ca49a8540dc70dcfe64c9026c1c5b9344642242dd6562970f9c127860405160405180910390a250565b611146336114a8565b151561115157600080fd5b611165816001611a9d90919063ffffffff16565b8073ffffffffffffffffffffffffffffffffffffffff167fddbf200aa634dc3fb81cfd68583dd1040d1c751d335e1d86b631bde3e977fea860405160405180910390a250565b600a602052806000526040600020600091509050806000015490806001015490806002015490806003015490806004018054600181600116156101000203166002900480601f01602080910402602001604051908101604052809291908181526020018280546001816001161561010002031660029004801561126f5780601f106112445761010080835404028352916020019161126f565b820191906000526020600020905b81548152906001019060200180831161125257829003601f168201915b505050505090806005018054600181600116156101000203166002900480601f01602080910402602001604051908101604052809291908181526020018280546001816001161561010002031660029004801561130d5780601f106112e25761010080835404028352916020019161130d565b820191906000526020600020905b8154815290600101906020018083116112f057829003601f168201915b505050505090806006018054600181600116156101000203166002900480601f0160208091040260200160405190810160405280929190818152602001828054600181600116156101000203166002900480156113ab5780601f10611380576101008083540402835291602001916113ab565b820191906000526020600020905b81548152906001019060200180831161138e57829003601f168201915b5050505050908060070160009054906101000a900460ff16908060070160019054906101000a900473ffffffffffffffffffffffffffffffffffffffff16908060080160009054906101000a900473ffffffffffffffffffffffffffffffffffffffff16908060090160009054906101000a900473ffffffffffffffffffffffffffffffffffffffff1690508b565b611443336110c6565b151561144e57600080fd5b611462816002611a9d90919063ffffffff16565b8073ffffffffffffffffffffffffffffffffffffffff167f71ae26cad02663e3d92efd6ec56031a80d74a20c0ab4183faa8bf262261c9baa60405160405180910390a250565b60006114be826001611a0990919063ffffffff16565b9050919050565b6114d933600161195a90919063ffffffff16565b3373ffffffffffffffffffffffffffffffffffffffff167f126174f6cf49c81cdb4a9214c6b8f037bef55b4ec31e4fc776cea2a1c8a88d5960405160405180910390a2565b806000600481111561152c57fe5b600a600083815260200190815260200160002060070160009054906101000a900460ff16600481111561155b57fe5b1415156115d0576040517f08c379a00000000000000000000000000000000000000000000000000000000081526004018080602001828103825260188152602001807f4974656d206973206e6f74207965742070726f6475636564000000000000000081525060200191505060405180910390fd5b6115d933610e2c565b15156115e457600080fd5b6001600a600084815260200190815260200160002060070160006101000a81548160ff0219169083600481111561161757fe5b02179055507f977eca9ca36fa23a0b799e12df1355eb88fb1900d76f0ca60e9f3026c809b644826040518082815260200191505060405180910390a15050565b60055481565b60045481565b61166c33610e2c565b151561167757600080fd5b6101606040519081016040528086815260200160095481526020016009548701815260200160008152602001858152602001848152602001838152602001600060048111156116c257fe5b81526020018273ffffffffffffffffffffffffffffffffffffffff168152602001600073ffffffffffffffffffffffffffffffffffffffff168152602001600073ffffffffffffffffffffffffffffffffffffffff16815250600a6000878152602001908152602001600020600082015181600001556020820151816001015560408201518160020155606082015181600301556080820151816004019080519060200190611772929190611b4d565b5060a082015181600501908051906020019061178f929190611b4d565b5060c08201518160060190805190602001906117ac929190611b4d565b5060e08201518160070160006101000a81548160ff021916908360048111156117d157fe5b02179055506101008201518160070160016101000a81548173ffffffffffffffffffffffffffffffffffffffff021916908373ffffffffffffffffffffffffffffffffffffffff1602179055506101208201518160080160006101000a81548173ffffffffffffffffffffffffffffffffffffffff021916908373ffffffffffffffffffffffffffffffffffffffff1602179055506101408201518160090160006101000a81548173ffffffffffffffffffffffffffffffffffffffff021916908373ffffffffffffffffffffffffffffffffffffffff1602179055509050506009600081548092919060010191905055507f3bad00b74ec692016f8280d4c64d5a23ba2832749ce9f6307747ef3b935ecd91856040518082815260200191505060405180910390a15050505050565b61191533600061195a90919063ffffffff16565b3373ffffffffffffffffffffffffffffffffffffffff167f2fed5abf6a80d6dfe30b4895481b2fc5d7dce5f8f7b931832f4a2947d5040c7f60405160405180910390a2565b600073ffffffffffffffffffffffffffffffffffffffff168173ffffffffffffffffffffffffffffffffffffffff161415151561199657600080fd5b6119a08282611a09565b15156119ab57600080fd5b60008260000160008373ffffffffffffffffffffffffffffffffffffffff1673ffffffffffffffffffffffffffffffffffffffff16815260200190815260200160002060006101000a81548160ff0219169083151502179055505050565b60008073ffffffffffffffffffffffffffffffffffffffff168273ffffffffffffffffffffffffffffffffffffffff1614151515611a4657600080fd5b8260000160008373ffffffffffffffffffffffffffffffffffffffff1673ffffffffffffffffffffffffffffffffffffffff16815260200190815260200160002060009054906101000a900460ff16905092915050565b600073ffffffffffffffffffffffffffffffffffffffff168173ffffffffffffffffffffffffffffffffffffffff1614151515611ad957600080fd5b611ae38282611a09565b151515611aef57600080fd5b60018260000160008373ffffffffffffffffffffffffffffffffffffffff1673ffffffffffffffffffffffffffffffffffffffff16815260200190815260200160002060006101000a81548160ff0219169083151502179055505050565b828054600181600116156101000203166002900490600052602060002090601f016020900481019282601f10611b8e57805160ff1916838001178555611bbc565b82800160010185558215611bbc579182015b82811115611bbb578251825591602001919060010190611ba0565b5b509050611bc99190611bcd565b5090565b611bef91905b80821115611beb576000816000905550600101611bd3565b5090565b9056fea165627a7a72305820edfdca35f5479b63470c3f2abc9b98a551cdce3cc53e71c05d8871793887bfc60029",
  "source": "// SPDX-License-Identifier: MIT\r\npragma solidity >=0.4.21 <0.9.0;\r\n\r\nimport \"./Ownable.sol\";\r\nimport \"./Manufacturer.sol\";\r\nimport \"./Distributor.sol\";\r\nimport \"./Retailer.sol\";\r\n\r\ncontract SupplyChain is Manufacturer,Distributor,Retailer{\r\n\r\n    address owner;\r\n    uint public productCount=0;\r\n    uint public manufacturerCount=0;\r\n    uint public distributorCount=0;\r\n    uint public retailerCount=0;\r\n    uint productCode;\r\n    uint stockNumber;\r\n\r\n    enum stage {\r\n        produced,\r\n        packed,\r\n        sold,\r\n        shipped,\r\n        received\r\n    }\r\n\r\n    stage constant defaultStage=stage.produced;\r\n\r\n    event produced(uint id);\r\n    event packed(uint id);\r\n    event sold(uint id);\r\n    event shipped(uint id);\r\n    event received(uint id);\r\n\r\n    constructor() public{\r\n        owner=msg.sender;\r\n        productCode=1;\r\n        stockNumber=1;\r\n    }\r\n\r\n    struct Product{\r\n        uint pc;\r\n        uint sk;\r\n        uint productId;    \r\n        uint productPrice;\r\n        string name;\r\n        string manufacturingDate;\r\n        string manufacturerName;\r\n        stage productStage;\r\n        address manufacturerId;\r\n        address distributorId;\r\n        address retailerId;\r\n    }\r\n\r\n    mapping(uint => Product) public products;\r\n    \r\n    modifier OnlyOwner() {\r\n        require(msg.sender==owner,\"Only Owner is allowed!\");\r\n        _;\r\n    }\r\n\r\n    modifier isAmountEnough(uint price) {\r\n        require(msg.value >= price, \"Paid amount is insufficient\");\r\n        _;\r\n    }\r\n\r\n    modifier transferAmount(uint id){\r\n        _;\r\n        uint price = products[id].productPrice;\r\n        uint returnAmount = msg.value - price;\r\n        //payable(msg.sender).transfer(returnAmount);\r\n    }\r\n\r\n    modifier Produced(uint id){\r\n        require(products[id].productStage == stage.produced, \"Item is not yet produced\");\r\n        _;\r\n    }\r\n\r\n    modifier Packed(uint id){\r\n        require(products[id].productStage == stage.packed, \"Item is not yet packed\");\r\n        _;\r\n    }\r\n\r\n    modifier Sold(uint id){\r\n        require(products[id].productStage == stage.sold, \"Item is not yet sold\");\r\n        _;\r\n    }\r\n\r\n    modifier Shipped(uint id){\r\n        require(products[id].productStage == stage.shipped, \"Item is not yet shipped\");\r\n        _;\r\n    }\r\n\r\n    modifier Received(uint id){\r\n        require(products[id].productStage == stage.received, \"Item is not yet received\");\r\n        _;\r\n    }\r\n\r\n    function getStatus(uint _pc) public view returns(stage temp){\r\n        return products[_pc].productStage;\r\n    }\r\n\r\n    function addProduct (uint _pc,string memory _name,string memory _date,string memory _manufacturerName,address _manufacturer) public onlyManufacturer(){\r\n        products[_pc]= Product(_pc,stockNumber,_pc + stockNumber,0,_name,_date,_manufacturerName,stage.produced,_manufacturer,address(0),address(0)); \r\n        stockNumber++;\r\n        emit produced(_pc);\r\n    }\r\n\r\n    function packProduct(uint _pc) public Produced(_pc) onlyManufacturer(){\r\n        products[_pc].productStage=stage.packed;\r\n        emit packed(_pc);\r\n    }\r\n\r\n    function sellProduct(uint _pc) public payable Packed(_pc) onlyDistributor() isAmountEnough(products[_pc].productPrice) transferAmount(_pc){\r\n        products[_pc].distributorId = msg.sender;\r\n        //payable(products[_pc].manufacturerId).transfer(products[_pc].productPrice);\r\n        products[_pc].productStage = stage.sold;\r\n        emit sold(_pc);\r\n    }\r\n\r\n    function shipProduct(uint _pc,uint _price) public Sold(_pc) onlyDistributor(){\r\n        products[_pc].productStage=stage.shipped;\r\n        products[_pc].productPrice=_price;\r\n        products[_pc].distributorId=msg.sender;\r\n        emit shipped(_pc);\r\n    }\r\n\r\n    function receivedProduct(uint _pc) public payable Shipped(_pc) onlyRetailer() isAmountEnough(products[_pc].productPrice) transferAmount(_pc){\r\n        products[_pc].retailerId = msg.sender;\r\n        //payable(products[_pc].distributorId).transfer(products[_pc].productPrice);\r\n        products[_pc].productStage = stage.received;\r\n        emit received(_pc);\r\n    }\r\n\r\n    /*struct Manufacturer{\r\n        address manufacturerAddress;\r\n        string name;\r\n        uint id;\r\n    }\r\n\r\n    mapping(uint => Manufacturer) public manufacturers;\r\n\r\n    function addManufacturer (string memory _name) public payable OnlyOwner{\r\n        manufacturers[manufacturerCount]= Manufacturer(msg.sender,_name,manufacturerCount);\r\n        manufacturerCount++;\r\n    }\r\n\r\n    struct Distributor{\r\n        address distributorAddress;\r\n        string name;\r\n        uint id;\r\n    }\r\n\r\n    mapping(uint => Distributor) public distributors;\r\n\r\n    function addDistributor (string memory _name) public OnlyOwner {\r\n        distributors[distributorCount]= Distributor(msg.sender,_name,distributorCount);\r\n        distributorCount++;\r\n    }\r\n    \r\n    struct Retailer{\r\n        address retailerAddress;\r\n        string name;\r\n        uint id;\r\n        uint shopID;\r\n        string shopName;\r\n    }\r\n\r\n    mapping(uint => Retailer) public retailers;\r\n\r\n    function addRetailer (string memory _name,uint _shopid,string memory _shopname) public OnlyOwner{\r\n        retailers[retailerCount]=Retailer(msg.sender,_name,retailerCount,_shopid,_shopname);\r\n        retailerCount++;\r\n    }\r\n\r\n    struct Shipment{\r\n        Manufacturer[] products;\r\n        uint[] quantity;\r\n        string deliveredTo;\r\n    }\r\n\r\n    struct Inventory{\r\n        uint inventoryID;\r\n        Manufacturer[] products;\r\n        uint[] quantity;\r\n    }\r\n    */\r\n\r\n}\r\n\r\n",
  "sourcePath": "E:/fyp-1/contracts/SupplyChain.sol",
  "compiler": {
    "name": "solc",
    "version": "0.5.0+commit.1d4f565a.Emscripten.clang"
  },
  "schemaVersion": "3.0.1",
  "updatedAt": "2022-12-28T06:57:43.669Z",
  "devdoc": {
    "methods": {}
  },
  "userdoc": {
    "methods": {}
  }
}